{
  "contractName": "vote",
  "abi": [
    {
      "constant": true,
      "inputs": [
        {
          "name": "",
          "type": "uint256"
        }
      ],
      "name": "proposals",
      "outputs": [
        {
          "name": "name",
          "type": "bytes32"
        },
        {
          "name": "voteCount",
          "type": "uint256"
        }
      ],
      "payable": false,
      "stateMutability": "view",
      "type": "function"
    },
    {
      "constant": true,
      "inputs": [],
      "name": "setarraysuccessful",
      "outputs": [
        {
          "name": "",
          "type": "int8"
        }
      ],
      "payable": false,
      "stateMutability": "view",
      "type": "function"
    },
    {
      "constant": true,
      "inputs": [
        {
          "name": "",
          "type": "uint256"
        }
      ],
      "name": "addressArray",
      "outputs": [
        {
          "name": "",
          "type": "address"
        }
      ],
      "payable": false,
      "stateMutability": "view",
      "type": "function"
    },
    {
      "constant": true,
      "inputs": [],
      "name": "chairperson",
      "outputs": [
        {
          "name": "",
          "type": "address"
        }
      ],
      "payable": false,
      "stateMutability": "view",
      "type": "function"
    },
    {
      "constant": true,
      "inputs": [
        {
          "name": "",
          "type": "address"
        }
      ],
      "name": "voters",
      "outputs": [
        {
          "name": "voted",
          "type": "bool"
        },
        {
          "name": "vote",
          "type": "uint256"
        }
      ],
      "payable": false,
      "stateMutability": "view",
      "type": "function"
    },
    {
      "constant": true,
      "inputs": [
        {
          "name": "",
          "type": "uint256"
        }
      ],
      "name": "proNames",
      "outputs": [
        {
          "name": "",
          "type": "bytes32"
        }
      ],
      "payable": false,
      "stateMutability": "view",
      "type": "function"
    },
    {
      "inputs": [],
      "payable": false,
      "stateMutability": "nonpayable",
      "type": "constructor"
    },
    {
      "constant": false,
      "inputs": [
        {
          "name": "proposalNames",
          "type": "bytes32[]"
        }
      ],
      "name": "createProposal",
      "outputs": [],
      "payable": false,
      "stateMutability": "nonpayable",
      "type": "function"
    },
    {
      "constant": false,
      "inputs": [
        {
          "name": "proposal",
          "type": "uint256"
        }
      ],
      "name": "voteForCandidate",
      "outputs": [],
      "payable": false,
      "stateMutability": "nonpayable",
      "type": "function"
    },
    {
      "constant": true,
      "inputs": [
        {
          "name": "sender",
          "type": "address"
        }
      ],
      "name": "isVoted",
      "outputs": [
        {
          "name": "",
          "type": "bool"
        }
      ],
      "payable": false,
      "stateMutability": "view",
      "type": "function"
    },
    {
      "constant": true,
      "inputs": [],
      "name": "getArraySettingResult",
      "outputs": [
        {
          "name": "",
          "type": "int8"
        }
      ],
      "payable": false,
      "stateMutability": "view",
      "type": "function"
    },
    {
      "constant": true,
      "inputs": [
        {
          "name": "proposal",
          "type": "uint256"
        }
      ],
      "name": "proCount",
      "outputs": [
        {
          "name": "",
          "type": "uint256"
        }
      ],
      "payable": false,
      "stateMutability": "view",
      "type": "function"
    },
    {
      "constant": true,
      "inputs": [],
      "name": "getNamesLength",
      "outputs": [
        {
          "name": "",
          "type": "uint256"
        }
      ],
      "payable": false,
      "stateMutability": "view",
      "type": "function"
    },
    {
      "constant": true,
      "inputs": [
        {
          "name": "x",
          "type": "uint256"
        }
      ],
      "name": "getName",
      "outputs": [
        {
          "name": "",
          "type": "bytes32"
        }
      ],
      "payable": false,
      "stateMutability": "view",
      "type": "function"
    },
    {
      "constant": true,
      "inputs": [],
      "name": "getAUse",
      "outputs": [
        {
          "name": "",
          "type": "address"
        }
      ],
      "payable": false,
      "stateMutability": "view",
      "type": "function"
    },
    {
      "constant": true,
      "inputs": [],
      "name": "winningProposal",
      "outputs": [
        {
          "name": "winningProposal_",
          "type": "uint256"
        }
      ],
      "payable": false,
      "stateMutability": "view",
      "type": "function"
    },
    {
      "constant": true,
      "inputs": [],
      "name": "winnerName",
      "outputs": [
        {
          "name": "winnerName_",
          "type": "bytes32"
        }
      ],
      "payable": false,
      "stateMutability": "view",
      "type": "function"
    },
    {
      "constant": true,
      "inputs": [],
      "name": "winnerCount",
      "outputs": [
        {
          "name": "voteCount_",
          "type": "uint256"
        }
      ],
      "payable": false,
      "stateMutability": "view",
      "type": "function"
    }
  ],
  "bytecode": "0x608060405260006005557fffffffffffffffffffffffffffffffffffffffffffffffffffffffffffffffff600660006101000a81548160ff021916908360000b60ff16021790555034801561005357600080fd5b50336000806101000a81548173ffffffffffffffffffffffffffffffffffffffff021916908373ffffffffffffffffffffffffffffffffffffffff160217905550610dec806100a36000396000f3006080604052600436106100f1576000357c0100000000000000000000000000000000000000000000000000000000900463ffffffff168063013cf08b146100f6578063056a0ec5146101465780630f96cf34146101775780632e4176cf146101e457806335f669081461023b57806336c8c5ee14610266578063609ff1bd146102935780636b8ff574146102be5780637f2b7f93146103075780637f6c84c61461036d578063a3ec138d146103ae578063a86f314114610410578063b8c86aa614610459578063caa02e081461048a578063cbff75cb146104b5578063e2ba53f014610510578063f788ffa214610543575b600080fd5b34801561010257600080fd5b506101216004803603810190808035906020019092919050505061059a565b6040518083600019166000191681526020018281526020019250505060405180910390f35b34801561015257600080fd5b5061015b6105cd565b604051808260000b60000b815260200191505060405180910390f35b34801561018357600080fd5b506101a2600480360381019080803590602001909291905050506105e0565b604051808273ffffffffffffffffffffffffffffffffffffffff1673ffffffffffffffffffffffffffffffffffffffff16815260200191505060405180910390f35b3480156101f057600080fd5b506101f961061e565b604051808273ffffffffffffffffffffffffffffffffffffffff1673ffffffffffffffffffffffffffffffffffffffff16815260200191505060405180910390f35b34801561024757600080fd5b50610250610643565b6040518082815260200191505060405180910390f35b34801561027257600080fd5b506102916004803603810190808035906020019092919050505061064d565b005b34801561029f57600080fd5b506102a86107d6565b6040518082815260200191505060405180910390f35b3480156102ca57600080fd5b506102e960048036038101908080359060200190929190505050610851565b60405180826000191660001916815260200191505060405180910390f35b34801561031357600080fd5b5061036b60048036038101908080359060200190820180359060200190808060200260200160405190810160405280939291908181526020018383602002808284378201915050505050509192919290505050610874565b005b34801561037957600080fd5b5061039860048036038101908080359060200190929190505050610b6c565b6040518082815260200191505060405180910390f35b3480156103ba57600080fd5b506103ef600480360381019080803573ffffffffffffffffffffffffffffffffffffffff169060200190929190505050610b96565b60405180831515151581526020018281526020019250505060405180910390f35b34801561041c57600080fd5b5061043b60048036038101908080359060200190929190505050610bc7565b60405180826000191660001916815260200191505060405180910390f35b34801561046557600080fd5b5061046e610bea565b604051808260000b60000b815260200191505060405180910390f35b34801561049657600080fd5b5061049f610c01565b6040518082815260200191505060405180910390f35b3480156104c157600080fd5b506104f6600480360381019080803573ffffffffffffffffffffffffffffffffffffffff169060200190929190505050610c30565b604051808215151515815260200191505060405180910390f35b34801561051c57600080fd5b50610525610c89565b60405180826000191660001916815260200191505060405180910390f35b34801561054f57600080fd5b50610558610cb8565b604051808273ffffffffffffffffffffffffffffffffffffffff1673ffffffffffffffffffffffffffffffffffffffff16815260200191505060405180910390f35b6002818154811015156105a957fe5b90600052602060002090600202016000915090508060000154908060010154905082565b600660009054906101000a900460000b81565b6003818154811015156105ef57fe5b906000526020600020016000915054906101000a900473ffffffffffffffffffffffffffffffffffffffff1681565b6000809054906101000a900473ffffffffffffffffffffffffffffffffffffffff1681565b6000600554905090565b6000600160003373ffffffffffffffffffffffffffffffffffffffff1673ffffffffffffffffffffffffffffffffffffffff16815260200190815260200160002090508060000160009054906101000a900460ff16151515610717576040517f08c379a000000000000000000000000000000000000000000000000000000000815260040180806020018281038252600e8152602001807f416c726561647920766f7465642e00000000000000000000000000000000000081525060200191505060405180910390fd5b60033390806001815401808255809150509060018203906000526020600020016000909192909190916101000a81548173ffffffffffffffffffffffffffffffffffffffff021916908373ffffffffffffffffffffffffffffffffffffffff1602179055505060018160000160006101000a81548160ff02191690831515021790555081816001018190555060016002838154811015156107b457fe5b9060005260206000209060020201600101600082825401925050819055505050565b6000806000809150600090505b60028054905081101561084c578160028281548110151561080057fe5b906000526020600020906002020160010154111561083f5760028181548110151561082757fe5b90600052602060002090600202016001015491508092505b80806001019150506107e3565b505090565b600060048281548110151561086257fe5b90600052602060002001549050919050565b6000806000600660006101000a81548160ff021916908360000b60ff1602179055506000809054906101000a900473ffffffffffffffffffffffffffffffffffffffff1673ffffffffffffffffffffffffffffffffffffffff163373ffffffffffffffffffffffffffffffffffffffff16141515610980576040517f08c379a00000000000000000000000000000000000000000000000000000000081526004018080602001828103825260248152602001807f4f6e6c79206368616972706572736f6e2063616e206372656174652050726f7081526020017f6f73616c0000000000000000000000000000000000000000000000000000000081525060400191505060405180910390fd5b6002600061098e9190610ce1565b600091505b600380549050821015610a41576000600160006003858154811015156109b557fe5b9060005260206000200160009054906101000a900473ffffffffffffffffffffffffffffffffffffffff1673ffffffffffffffffffffffffffffffffffffffff1673ffffffffffffffffffffffffffffffffffffffff16815260200190815260200160002060000160006101000a81548160ff0219169083151502179055508180600101925050610993565b60036000610a4f9190610d05565b60046000610a5d9190610d26565b600090505b8251811015610b3c57600260408051908101604052808584815181101515610a8657fe5b90602001906020020151600019168152602001600081525090806001815401808255809150509060018203906000526020600020906002020160009091929091909150600082015181600001906000191690556020820151816001015550505060048382815181101515610af657fe5b9060200190602002015190806001815401808255809150509060018203906000526020600020016000909192909190915090600019169055508080600101915050610a62565b6004805490506005819055506001600660006101000a81548160ff021916908360000b60ff160217905550505050565b6000600282815481101515610b7d57fe5b9060005260206000209060020201600101549050919050565b60016020528060005260406000206000915090508060000160009054906101000a900460ff16908060010154905082565b600481815481101515610bd657fe5b906000526020600020016000915090505481565b6000600660009054906101000a900460000b905090565b60006002610c0d6107d6565b815481101515610c1957fe5b906000526020600020906002020160010154905090565b6000600160008373ffffffffffffffffffffffffffffffffffffffff1673ffffffffffffffffffffffffffffffffffffffff16815260200190815260200160002060000160009054906101000a900460ff169050919050565b60006002610c956107d6565b815481101515610ca157fe5b906000526020600020906002020160000154905090565b60008060009054906101000a900473ffffffffffffffffffffffffffffffffffffffff16905090565b5080546000825560020290600052602060002090810190610d029190610d47565b50565b5080546000825590600052602060002090810190610d239190610d76565b50565b5080546000825590600052602060002090810190610d449190610d9b565b50565b610d7391905b80821115610d6f57600080820160009055600182016000905550600201610d4d565b5090565b90565b610d9891905b80821115610d94576000816000905550600101610d7c565b5090565b90565b610dbd91905b80821115610db9576000816000905550600101610da1565b5090565b905600a165627a7a72305820d8665a552f5f0944389ca69cc1c300ace4b6979c57bcd51468779e87d7135bf30029",
  "source": "pragma solidity >=0.4.21 <0.7.0;\r\n\r\n\r\ncontract vote{\r\n    \r\n    //[\"0xd4967590eb024589dfb6b9e48a576eb49ebc19d764b0d1d67dc21975e7258e97\",\"0xd5967590eb024589dfb6b9e48a576eb49ebc19d764b0d1d67dc21975e7258e98\"]\r\n    // 这里声明了一个新的复合类型用于稍后的变量\r\n    // 它用来表示一个选民\r\n    struct Voter {\r\n        bool voted;  // 若为真，代表该人已投票\r\n        uint vote;   // 投票提案的索引\r\n    }\r\n\r\n    // 提案的类型\r\n    struct Proposal {\r\n        bytes32 name;   // 简称（最长32个字节）\r\n        uint voteCount; // 得票数\r\n    }\r\n    \r\n    address public chairperson;\r\n\r\n    // 这声明了一个状态变量，为每个可能的地址存储一个 `Voter`。\r\n    mapping(address => Voter) public voters;\r\n\r\n\r\n    \r\n    // 一个 `Proposal` 结构类型的动态数组\r\n    Proposal[] public proposals;\r\n    address[] public addressArray;\r\n    bytes32[] public proNames;\r\n    uint proNamesLength = 0;\r\n    int8 public setarraysuccessful = -1; // 1 success, 0 fail, -1 not yet tried\r\n\r\n    /// 为 `proposalNames` 中的每个提案，创建一个新的（投票）表决\r\n    constructor() public {\r\n        chairperson = msg.sender;\r\n    }\r\n    \r\n    function createProposal(bytes32[] proposalNames) public{\r\n        setarraysuccessful = 0;\r\n        require(\r\n            msg.sender == chairperson,\r\n            \"Only chairperson can create Proposal\"\r\n        );\r\n        \r\n        //对于提供的每个提案名称，\r\n        //创建一个新的 Proposal 对象并把它添加到数组的末尾。\r\n        delete proposals;\r\n        for(uint j = 0; j < addressArray.length; j++){\r\n            voters[addressArray[j]].voted = false;\r\n        }\r\n        delete addressArray;\r\n        delete proNames;\r\n        for (uint i = 0; i < proposalNames.length; i++) {\r\n            // `Proposal({...})` 创建一个临时 Proposal 对象，\r\n            // `proposals.push(...)` 将其添加到 `proposals` 的末尾\r\n            proposals.push(Proposal({\r\n                name: proposalNames[i],\r\n                voteCount: 0\r\n            }));\r\n            proNames.push(proposalNames[i]);\r\n        }\r\n        proNamesLength = proNames.length;\r\n        setarraysuccessful = 1;\r\n    }\r\n    \r\n    \r\n    /// 投给提案 `proposals[proposal].name`.\r\n    function voteForCandidate(uint proposal) public {\r\n        Voter storage sender = voters[msg.sender];\r\n        require(!sender.voted, \"Already voted.\");\r\n        addressArray.push(msg.sender);\r\n        sender.voted = true;\r\n        sender.vote = proposal;\r\n\r\n        // 如果 `proposal` 超过了数组的范围，则会自动抛出异常，并恢复所有的改动\r\n        proposals[proposal].voteCount += 1;\r\n    }\r\n\r\n    //返回投票人的状态\r\n    function isVoted(address sender) public view\r\n            returns (bool)\r\n    {\r\n       return voters[sender].voted;\r\n    }\r\n    function getArraySettingResult() public view returns (int8)\r\n    {\r\n    \treturn setarraysuccessful;\r\n    }\r\n    //返回候选人票数\r\n    function proCount(uint proposal) public view\r\n            returns (uint)\r\n    {\r\n       return proposals[proposal].voteCount;\r\n    }\r\n\r\n    function getNamesLength() public view\r\n            returns (uint)\r\n    {\r\n       return proNamesLength;\r\n    }\r\n\r\n    function getName(uint x) public view\r\n            returns (bytes32)\r\n    {\r\n       return proNames[x];\r\n    }\r\n\r\n    function getAUse() public view\r\n            returns (address)\r\n    {\r\n       return chairperson;\r\n    }\r\n    /// @dev 结合之前所有的投票，计算出最终胜出的提案\r\n    function winningProposal() public view\r\n            returns (uint winningProposal_)\r\n    {\r\n        uint winningVoteCount = 0;\r\n        for (uint p = 0; p < proposals.length; p++) {\r\n            if (proposals[p].voteCount > winningVoteCount) {\r\n                winningVoteCount = proposals[p].voteCount;\r\n                winningProposal_ = p;\r\n            }\r\n        }\r\n    }\r\n\r\n    // 调用 winningProposal() 函数以获取提案数组中获胜者的索引，并以此返回获胜者的名称\r\n    function winnerName() public view\r\n            returns (bytes32 winnerName_)\r\n    {\r\n        winnerName_ = proposals[winningProposal()].name;\r\n    }\r\n    \r\n    function winnerCount() public view\r\n            returns (uint voteCount_)\r\n    {\r\n        voteCount_ = proposals[winningProposal()].voteCount;\r\n    }\r\n}",
  "sourcePath": "D:/app/vote/contracts/vote.sol",
  "compiler": {
    "name": "solc",
    "version": "0.4.22+commit.4cb486ee.Emscripten.clang"
  },
  "schemaVersion": "3.3.4",
  "updatedAt": "2021-04-20T01:38:57.336Z",
  "networkType": "ethereum",
  "devdoc": {
    "methods": {
      "winningProposal()": {
        "details": "结合之前所有的投票，计算出最终胜出的提案\r"
      }
    }
  },
  "userdoc": {
    "methods": {
      "voteForCandidate(uint256)": {
        "notice": "投给提案 `proposals[proposal].name`.\r"
      }
    }
  }
}